:100000000C9428010C9459010C9459010C94590139
:100010000C9459010C9459010C9459010C945901F8
:100020000C9459010C9459010C9459010C945901E8
:100030000C9459010C9459010C9459010C945901D8
:100040000C9459010C9459010C9459010C945901C8
:100050000C9459010C9459010C9459010C943208D8
:100060000C9459010C94FF070C9427070C94590128
:100070000C9459010C9459010C9459010C94590198
:100080000C9459010C9459010C9459010C94590188
:100090000C94CC070C94E8060C9459010C9459016B
:1000A0000C9459010C9459010C9459010C94590168
:1000B0000C9459010C9459010C9459010C94590158
:1000C0000C9459010C9459010C9459010C94990702
:1000D0000C94A9060C9459010C9466070C946A06BA
:1000E0000C9459018F0A920A850A890AC90A960A4C
:1000F0009A0AA00AA40AA80AAE0AB20AB60AC90A4B
:10010000BC0AC00AC40A0C947C080C94C00A0C9463
:10011000F9010C94C40A0C94890A0C94BC0A0C943E
:10012000A00A0C94960A0C945F020C948F0A0C940B
:10013000C90A0C9419020C94A80A0C94B60A0C94DF
:10014000AE0A0C9435020C94B20A0C94850A0C94F5
:10015000920A0C949A0A0C94EE010C94A2010C944D
:10016000A40A000020002300260029002C002F00F4
:100170003200000100000301060109010505050523
:10018000070508080808020202020A0A080804040F
:10019000040401010101010101010303030303033D
:1001A0000303040707070C0C0C0C0C0C0C0C0202CC
:1001B000020206060606060606060B0B0B0B0B0BC9
:1001C0000B0B010210202008081020401020408056
:1001D000020102010804020101020408102040800B
:1001E0008040201008040201800402018040201099
:1001F00008040201080402010102040810204080E2
:1002000001020408102040800000090A02080B0CBB
:100210000D070603040100000000000000000000BC
:1002200000000000000000000000000000000000CE
:100230000000000011100F0000000000000000008E
:1002400000000000000000000000000000007C082A
:1002500011241FBECFEFD1E2DEBFCDBF00E00CBF47
:1002600012E0A0E0B2E0E4E9F9E100E00BBF02C077
:1002700007900D92AA32B107D9F724E0AAE2B2E0C2
:1002800001C01D92AB3DB207E1F711E0C8E2D1E039
:1002900000E006C021970109802FFE010E94A60CF4
:1002A000C732D10780E00807A9F70E944E090C94D5
:1002B0008B0B0C940000FC01A489B58981E090E0CF
:1002C0009C0100A002C0220F331F0A94E2F72C9376
:1002D000A089B1891C92A289B3892FEC2C9311A219
:1002E000A689B7894C919C01048C02C0220F331F50
:1002F0000A94E2F7242B2C93A689B7894C919C0190
:10030000058C02C0220F331F0A94E2F7242B2C9392
:10031000A689B7894C919C01068C02C0220F331F1D
:100320000A94E2F7242B2C93A689B7892C91078C89
:1003300002C0880F991F0A94E2F7809582238C935C
:10034000089508950F931F93CF93DF93FC01A68523
:10035000B7858D01005C1F4FE80188819981019666
:100360008F739927AD014E5B5F4FEA012881398178
:1003700028173907D1F3E80128813981A20FB31F6B
:100380006C93A685B785A05CBF4F11969C938E9306
:10039000A689B7892C9181E090E0078C02C0880F74
:1003A000991F0A94E2F7822B8C9381E081A3048841
:1003B000F589E02D80818064808381E090E0DF9189
:1003C000CF911F910F910895682F89EB94E00C94C1
:1003D000A201682F87E994E00C94A201FC0181A19D
:1003E000882329F0A489B5898C9186FFFBCF11A2BF
:1003F0000895FC01A485B585FD01E05CFF4F2081D7
:1004000031813296808191812817390779F0808176
:100410009181A80FB91F8C91208131812F5F3F4FAF
:100420002F7333273183208390E008958FEF9FEF60
:100430000895DC011C96ED91FC911D97DF01A05CF5
:10044000BF4F2D913C91119712968D919C911197D0
:100450002817390739F08D919C91E80FF91F808199
:1004600090E008958FEF9FEF0895FC012485358576
:10047000F901E05CFF4F80819181329620813181CA
:10048000821B930B8F7399270895FB01E05CFF4F4C
:1004900020813181DB01AE5BBF4F4D915C912F5FBD
:1004A0003F4F2F7333274217530741F0408151814B
:1004B000DB01A40FB51F8C93318320830895CF9265
:1004C000DF92EF92FF920F931F93CF93DF936C0114
:1004D000EB017B01E40EF51E00E010E0CE15DF0518
:1004E00061F06991D601ED91FC910190F081E02DD0
:1004F000C6011995080F191FF1CFC801DF91CF91DF
:100500001F910F91FF90EF90DF90CF9008953FB72C
:10051000F89480912B0290912C02A0912D02B09121
:100520002E0226B5A89B05C02F3F19F00196A11DEC
:10053000B11D3FBFBA2FA92F982F8827820F911D79
:10054000A11DB11DBC01CD0142E0660F771F881FC0
:10055000991F4A95D1F70895CF92DF92EF92FF92BB
:10056000CF93DF936B017C010E948702EB01C114E2
:10057000D104E104F10479F00E9487026C1B7D0B29
:10058000683E7340A0F381E0C81AD108E108F10881
:10059000C851DC4FECCFDF91CF91FF90EF90DF900F
:1005A000CF900895CF92DF92EF92FF92CF93DF9397
:1005B0009FB7F894C0909304D0909404E090950471
:1005C000F09096049FBF98EEC90E93E0D91EE11CEF
:1005D000F11CC82FD0E089EB94E00E9435028C1703
:1005E0009D07BCF42FB7F8948091930490919404E4
:1005F000A0919504B09196042FBF8C159D05AE0572
:10060000BF0538F461E070E080E090E00E94AC0249
:10061000E2CF89EB94E00E94350221E08C179D0720
:100620000CF420E0822FDF91CF91FF90EF90DF90CC
:10063000CF9008954F925F926F927F928F929F9288
:10064000AF92BF92CF92DF92EF92FF920F931F93E0
:10065000CF93DF93CDB7DEB7C454D1400FB6F89433
:10066000DEBF0FBECDBF69837A838B839C832D83CE
:100670003E834F83588781E090E0A0E0B0E0CF5503
:10068000DF4F88839983AA83BB83C15AD040CB555F
:10069000DF4F188219821A821B82C55AD0409E01F0
:1006A0002F5F3F4F79018E010F551F4FCC24C3940C
:1006B000D12CF70144805580668077804114510425
:1006C0006104710409F44DC080809180A280B380E0
:1006D000C501B401A30192010E94840CCF5BDE4FDF
:1006E000288339834A835B83C154D140FFEFCF1AFB
:1006F000DF0AA3019201CF5BDE4F688179818A8195
:100700009B81C154D1400E94740C861A970AA80A92
:10071000B90AF70180869186A286B386F8016481C2
:10072000758186819781CF5BDE4F288139814A812F
:100730005B81C154D1400E94740C80809180A28062
:10074000B380A5019401261B370B480B590B20875A
:10075000318742875387F4E0EF0EF11C0C5F1F4F87
:10076000A8CF21E0C21AD108CC0CDD1CCC0CDD1CBA
:10077000E1EAF0E0EC0FFD1FEC0DFD1D80819181A1
:10078000A281B381B7FF0CC04D815E816F817885F6
:10079000840F951FA61FB71F80839183A283B38305
:1007A000E1EAF0E0EC0FFD1FEC0DFD1D60817181B1
:1007B00082819381CC5BDE4F0FB6F894DEBF0FBE13
:1007C000CDBFDF91CF911F910F91FF90EF90DF9000
:1007D000CF90BF90AF909F908F907F906F905F90E1
:1007E0004F9008954F925F926F927F928F929F9257
:1007F000AF92BF92CF92DF92EF92FF920F931F932F
:10080000CF93DF932B013C01C12CD12C7601812C9D
:10081000912C540111E4C414D504E604F704A1F1A9
:1008200080917B00877F80937B0010937C00809178
:100830007A00806480937A0080917A0086FDFCCFF4
:10084000009178008091790065E070E080E090E0B0
:100850000E94AC020170C02F80E0D82FCE01DD0FC6
:10086000AA0BBB0B0C2C04C0880F991FAA1FBB1F1F
:100870000A94D2F7882A992AAA2ABB2A8FEFC81A83
:10088000D80AE80AF80AC7CFC501B401DF91CF91B1
:100890001F910F91FF90EF90DF90CF90BF90AF909E
:1008A0009F908F907F906F905F904F900895CF9220
:1008B000DF92EF92FF9289EB94E00E94F9017C01B4
:1008C00089EB94E00E94F9016C0189EB94E00E94AD
:1008D000F901A601DD0C660B770B762F652F542FDF
:1008E0004427092E000CAA0BBB0BDC019927882793
:1008F000842B952BA62BB72B6701FF0CEE08FF0866
:10090000C82AD92AEA2AFB2A89EB94E00E94F90135
:10091000092E000CAA0BBB0BB82FAA2799278827F2
:10092000BC01CD016C297D298E299F29FF90EF9074
:10093000DF90CF9008951F93CF93DF93172FD82F79
:10094000C92F862F660F990B0E94E401812F110F8A
:10095000990B0E94E4018D2FDD0F990B0E94E40199
:100960008C2FCC0F990BDF91CF911F910C94E40148
:100970004F925F926F927F928F929F92AF92BF92AF
:10098000EF92FF920F931F93CF93DF93CDB7DEB714
:100990002C970FB6F894DEBF0FBECDBF2B013C01E4
:1009A00029873A874B875C8761E070E080E090E0C0
:1009B000A80197010E94840C6D837E838F839887A2
:1009C000C301B201A80197010E94840C4B015C0194
:1009D00029853A854B855C852115310541055105F1
:1009E00009F48AC020FF42C06D817E818F81988585
:1009F000A80197010E94840C69837A838B839C836E
:100A0000240135011D821E821F8218864114510463
:100A10006104710459F140FE14C06D817E818F81A3
:100A2000988529813A814B815C81620F731F841FF5
:100A3000951FA80197010E94840C6D837E838F838C
:100A4000988769817A818B819C81660F771F881FC7
:100A5000991FA80197010E94840C69837A838B8374
:100A60009C837694679457944794D0CFC501B40182
:100A7000A80197010E94840C69837A838B839C83ED
:100A8000412C512C320181149104A104B10429F1AB
:100A900080FE0EC069817A818B819C81640D751DF9
:100AA000861D971DA80197010E94840C2B013C0113
:100AB00069817A818B819C81660F771F881F991FBE
:100AC000A80197010E94840C69837A838B839C839D
:100AD000B694A79497948794D6CF89859A85AB8549
:100AE000BC85B695A7959795879589879A87AB8793
:100AF000BC87530142016CCF6D817E818F819885C7
:100B00002C960FB6F894DEBF0FBECDBFDF91CF910C
:100B10001F910F91FF90EF90BF90AF909F908F909B
:100B20007F906F905F904F900895CF93DF93CDB7F4
:100B3000DEB729970FB6F894DEBF0FBECDBF69832D
:100B40007A838B839C832D833E834F835887270131
:100B5000380189EB94E00E943502892B61F089EB22
:100B600094E00E94F901F5CF87E994E00E943502F4
:100B700018161906B4F089EB94E00E943502049728
:100B80009CF30E945704ED80FE800F811885298117
:100B90003A814B815C810E94B804862F0E94E90152
:100BA000E3CF87E994E00E94F90189878D30C1F491
:100BB0000E94E90186017501A30192016DE070E0D8
:100BC00080E090E00E94B8040E949B048AE00E94AA
:100BD000E901A30192016AE070E080E090E00DC0BD
:100BE00089850E94E9012985622F220F770B880BE6
:100BF000990B86017501A30192010E94B8040E941D
:100C00009B04B9CF4F925F926F927F928F929F9287
:100C1000AF92BF92CF92DF92EF92FF920F931F930A
:100C2000CF93DF93EB01182F092F0E94930B0E94A3
:100C3000FA0B2B013C0182E0882E912CA12CB12CC7
:100C4000C501B4010E94930BA30192010E948E0B77
:100C500087FF24C075016401BE01812F902FC1144C
:100C6000D104E104F10479F0A70196010E94840CFB
:100C7000562F472F382F292FC701B601C52ED42E46
:100C8000E32EF22EECCF613071058105910559F408
:100C90008FEF881A980AA80AB80AD2CF41E030E04C
:100CA00020E090E003C0462F372F282F642F732FAA
:100CB000822FDF91CF911F910F91FF90EF90DF90E6
:100CC000CF90BF90AF909F908F907F906F905F90EC
:100CD0004F9008951F920F920FB60F9211240BB6EA
:100CE0000F922F933F938F939F93EF93FF932091B6
:100CF0006F023091700280917102909172022817F8
:100D0000390731F4809131018F7D8093310114C016
:100D1000E0917102F0917202E15DFD4F20818091BE
:100D200071029091720201968F73992790937202CB
:100D30008093710220933601FF91EF919F918F91E3
:100D40003F912F910F900BBE0F900FBE0F901F90F1
:100D500018951F920F920FB60F9211240BB60F9297
:100D60002F933F938F939F93EF93FF932091F702DD
:100D70003091F8028091F9029091FA022817390710
:100D800031F48091D1008F7D8093D10014C0E09127
:100D9000F902F091FA02E954FD4F20818091F902A5
:100DA0009091FA0201968F7399279093FA0280939B
:100DB000F9022093D600FF91EF919F918F913F917F
:100DC0002F910F900BBE0F900FBE0F901F90189594
:100DD0001F920F920FB60F9211240BB60F922F9302
:100DE0003F938F939F93EF93FF932091A1033091B3
:100DF000A2038091A3039091A4032817390731F42B
:100E00008091C9008F7D8093C90014C0E091A30335
:100E1000F091A403EF59FC4F20818091A30390919E
:100E2000A40301968F7399279093A4038093A3033F
:100E30002093CE00FF91EF919F918F913F912F9141
:100E40000F900BBE0F900FBE0F901F9018951F9222
:100E50000F920FB60F9211240BB60F922F933F9360
:100E60008F939F93EF93FF9320914B0430914C0409
:100E700080914D0490914E042817390731F48091E8
:100E8000C1008F7D8093C10014C0E0914D04F091AA
:100E90004E04E55FFB4F208180914D0490914E04FC
:100EA00001968F73992790934E0480934D0420935D
:100EB000C600FF91EF919F918F913F912F910F90DD
:100EC0000BBE0F900FBE0F901F9018951F920F92A0
:100ED0000FB60F9211240BB60F922F933F934F939F
:100EE0005F936F937F938F939F93AF93BF93EF9392
:100EF000FF938091300182FD07C08091360163E746
:100F000072E00E94450202C080913601FF91EF918C
:100F1000BF91AF919F918F917F916F915F914F9111
:100F20003F912F910F900BBE0F900FBE0F901F900F
:100F300018951F920F920FB60F9211240BB60F92B5
:100F40002F933F934F935F936F937F938F939F93D1
:100F5000AF93BF93EF93FF938091D00082FD07C0C2
:100F60008091D6006BEF72E00E94450202C0809132
:100F7000D600FF91EF91BF91AF919F918F917F919B
:100F80006F915F914F913F912F910F900BBE0F90FA
:100F90000FBE0F901F9018951F920F920FB60F92D1
:100FA00011240BB60F922F933F934F935F936F9340
:100FB0007F938F939F93AF93BF93EF93FF93809112
:100FC000C80082FD07C08091CE0065EA73E00E94F0
:100FD000450202C08091CE00FF91EF91BF91AF9189
:100FE0009F918F917F916F915F914F913F912F9141
:100FF0000F900BBE0F900FBE0F901F9018951F9271
:101000000F920FB60F9211240BB60F922F933F93AE
:101010004F935F936F937F938F939F93AF93BF9300
:10102000EF93FF938091C00082FD07C08091C600BE
:101030006FE474E00E94450202C08091C600FF91F7
:10104000EF91BF91AF919F918F917F916F915F9140
:101050004F913F912F910F900BBE0F900FBE0F90AD
:101060001F9018951F920F920FB60F9211242F9375
:101070003F938F939F93AF93BF93809193049091ED
:101080009404A0919504B091960430912A0223E033
:10109000230F2D3720F40196A11DB11D05C026E8B0
:1010A000230F0296A11DB11D20932A028093930461
:1010B00090939404A0939504B093960480912B028E
:1010C00090912C02A0912D02B0912E020196A11DAB
:1010D000B11D80932B0290932C02A0932D02B0930C
:1010E0002E02BF91AF919F918F913F912F910F90C1
:1010F0000FBE0F901F901895CF92DF92EF92FF9244
:10110000E7E9F4E01382128288EEC82E83E0D82E3D
:10111000E12CF12CC482D582E682F78264E072E091
:10112000718360838FE494E0958784878BE094E0FB
:101130009787868785EC90E0918B808B84EC90E09C
:10114000938B828B80EC90E0958B848B81EC90E08C
:10115000978B868B82EC90E0918F808F86EC90E06D
:10116000938F828F44E0448F33E0358F27E0268FC2
:1011700095E0978F81E080A3E9EEF3E0138212827D
:10118000C482D582E682F78271836083A5EAB3E0E8
:10119000B587A487A1E6B3E0B787A687ADECB0E03A
:1011A000B18BA08BACECB0E0B38BA28BA8ECB0E021
:1011B000B58BA48BA9ECB0E0B78BA68BAAECB0E002
:1011C000B18FA08FAEECB0E0B38FA28F448F358F7C
:1011D000268F978F80A3EFE3F3E013821282C482FD
:1011E000D582E682F78271836083ABEFB2E0B58788
:1011F000A487A7EBB2E0B787A687A5EDB0E0B18BD7
:10120000A08BA4EDB0E0B38BA28BA0EDB0E0B58BCA
:10121000A48BA1EDB0E0B78BA68BA2EDB0E0B18FAF
:10122000A08FA6EDB0E0B38FA28F448F358F268FAD
:10123000978F80A3E9EBF4E013821282C482D582F7
:10124000E682F7827183608363E772E07587648763
:101250006FE272E07787668765E371E0718B608B80
:1012600064E371E0738B628B60E371E0758B648B78
:1012700061E371E0778B668B62E371E0718F608F61
:1012800066E371E0738F628F448F358F268F978F5F
:1012900080A3FF90EF90DF90CF900895CF93DF93DE
:1012A000CDB7DEB72E970FB6F894DEBF0FBECDBF19
:1012B000789484B5826084BD84B5816084BD85B531
:1012C000826085BD85B5816085BD80916E0081603D
:1012D00080936E00109281008091810082608093E3
:1012E00081008091810081608093810080918000E5
:1012F0008160809380008091B10084608093B10010
:101300008091B00081608093B000809191008260F4
:1013100080939100809191008160809391008091F1
:1013200090008160809390008091A1008260809302
:10133000A1008091A10081608093A1008091A00014
:1013400081608093A00080912101826080932101BF
:101350008091210181608093210180912001816031
:101360008093200180917A00846080937A0080913C
:101370007A00826080937A0080917A008160809305
:101380007A0080917A00806880937A001092C10080
:1013900087E994E00E945B0189EB94E00E945B0185
:1013A00048E150E060E172E087E994E00E945F026A
:1013B0008DE00E94E9018AE00E94E9019AE0492E4D
:1013C000512C612C712C2AE0C22ED12CE12CF12C55
:1013D000C701B6010E9402066130710581059105C1
:1013E00051F4C301B2010E9402066130710581050A
:1013F000910569F422C06EE070E080E090E00E9408
:10140000F2036B017C0120E4D20EE11CF11CC3014C
:10141000B2010E9402066130710581059105C1F299
:101420006FE070E080E090E00E94F2032B013C014D
:1014300020E8520E611C711CCBCFA7019601C3019D
:10144000B2010E94740C69837A838B839C83A3010D
:1014500092012150310941095109C701B60161507A
:101460007109810991090E94740C3B01582E492E83
:101470006EE070E080E090E00E94F2034B015C01BE
:1014800020E4920EA11CB11C6301E52CF42CC501D3
:10149000B401C114D104E104F10469F0A70196017B
:1014A0000E94840CAB01382F292FC701B6016A01B5
:1014B000E32EF22EEECF6130710581059105C1F664
:1014C0009301452D542DC501B4010E941A032B012F
:1014D0003C01E5E1F2E04491EFECF1E02491E9E830
:1014E000F1E09491992309F401C1442309F451C016
:1014F00050E0FA013197E131F10508F04AC0882740
:10150000EE58FF4F8F4F0C94A60C809180008F7780
:1015100003C0809180008F7D809380003AC084B5A5
:101520008F7702C084B58F7D84BD33C08091B000B9
:101530008F7703C08091B0008F7D8093B00029C069
:10154000809190008F7707C0809190008F7D03C0BD
:1015500080919000877F809390001BC08091A000B5
:101560008F7707C08091A0008F7D03C08091A0007D
:10157000877F8093A0000DC0809120018F7707C0E6
:10158000809120018F7D03C080912001877F80930F
:101590002001E92FF0E0EE0FFF1FEE59FE4FA5915D
:1015A000B491EC912E2309F4A1C01E861D868D8571
:1015B0009E85892BA1F489EB94E00E9435021816D0
:1015C0001906ACF789EB94E00E94F90131E020E0C4
:1015D0008334910509F030E03D872E87E8CF8D8573
:1015E0009E85019701F588E00E94D2028823E9F2E6
:1015F0000E94570469877A878B879C870E945704CB
:101600006D837E838F83988781E490E00E94E4015C
:10161000C501B4010E949B0469817A818B819C8100
:101620000E949B042FC08D859E850297A1F481E0C6
:101630000E94D202882309F4B8CF89EB94E00E947B
:10164000F9018134910519F18334910509F0AFCF87
:1016500083E090E019C08D859E85039709F0A7CFA0
:1016600088E00E94D202882309F49FCF0E94570489
:1016700069877A878B879C870E9457046D837E8356
:101680008F83988782E090E09E878D8790CFAD8092
:10169000BE80CF80D884E984FA840B851C851EC067
:1016A00089E00E94D202882309F189EB94E00E942C
:1016B000F90181349105D1F40E9457046D837E8332
:1016C0008F8398870E9457045B016C0181E490E04E
:1016D0000E94E401ED80FE800F81188529813A8106
:1016E0004B815C81C301B2010E94950580E090E0CE
:1016F000892BB1F683E490E00E94E401C501B401B6
:101700000E949B0469817A818B819C810E949B0449
:1017100081E090E0EDCFF8940C94C80C0E94D00BBF
:1017200008F481E00895E89409C097FB3EF4909591
:101730008095709561957F4F8F4F9F4F9923A9F0AA
:10174000F92F96E9BB279395F69587957795679539
:10175000B795F111F8CFFAF4BB0F11F460FF1BC07D
:101760006F5F7F4F8F4F9F4F16C0882311F096E910
:1017700011C0772321F09EE8872F762F05C06623BE
:1017800071F096E8862F70E060E02AF09A95660F77
:10179000771F881FDAF7880F9695879597F9089530
:1017A000990F0008550FAA0BE0E8FEEF1616170672
:1017B000E807F907C0F012161306E407F50798F0DA
:1017C000621B730B840B950B39F40A2661F0232BF3
:1017D000242B252B21F408950A2609F4A140A6956F
:1017E0008FEF811D811D089519F416F40C94480C97
:1017F0000C943A0C0E945A0CB8F39923C9F3B6F32F
:101800009F57550B87FF0E944B0C0024A0E640EA2F
:10181000900180585695979528F4805C660F771F45
:10182000881F20F026173707480730F4621B730B18
:10183000840B202931294A2BA6951794079420253B
:1018400031254A2758F7660F771F881F20F0261783
:101850003707480730F4620B730B840B200D311DE2
:10186000411DA09581F7B901842F9158880F969555
:10187000879508959F3F31F0915020F48795779593
:101880006795B795880F911D9695879597F9089557
:101890009FEF80EC089591505040660F771F881F8E
:1018A000D2F7089557FD9058440F551F59F05F3FE8
:1018B00071F04795880F97FB991F61F09F3F79F072
:1018C00087950895121613061406551FF2CF4695F4
:1018D000F1DF08C0161617061806991FF1CF869576
:1018E0007105610508940895DB018F939F930E9411
:1018F000AE0CBF91AF91A29F800D911DA39F900D43
:10190000B29F900D11240895A1E21A2EAA1BBB1BB1
:10191000FD010DC0AA1FBB1FEE1FFF1FA217B307BB
:10192000E407F50720F0A21BB30BE40BF50B661FD1
:10193000771F881F991F1A9469F760957095809595
:1019400090959B01AC01BD01CF010895EE0FFF1FE3
:10195000881F8BBF0790F691E02D19940E94B90C57
:10196000A59F900DB49F900DA49F800D911D1124F3
:101970000895A29FB001B39FC001A39F700D811D68
:101980001124911DB29F700D811D1124911D089588
:04199000F894FFCFF9
:1019940000000000A2015F023502F9011902EE0104
:1019A40057656C636F6D6520746F2041726475694F
:0A19B4006E6F20436861742100008B
:00000001FF
